{
  "transactions": [
    {
      "hash": "0x7021f4f57d02f765964032dda5469e533b51857510d11e944e93dbf65e3fd289",
      "transactionType": "CALL",
      "contractName": null,
      "contractAddress": "0xb4c240a242c43937391c89a40da28d7e06751ca0",
      "function": "executeCall(address,uint256,bytes)",
      "arguments": [
        "0x7b79995e5f793A07Bc00c21412e50Ecae098E7f9",
        "0",
        "0xa9059cbb000000000000000000000000b796d5d8af0044939489adedbf8a627f14b90d96000000000000000000000000000000000000000000000000001550f7dca70000"
      ],
      "transaction": {
        "from": "0xb796d5d8af0044939489adedbf8a627f14b90d96",
        "to": "0xb4c240a242c43937391c89a40da28d7e06751ca0",
        "gas": "0x1231f",
        "value": "0x0",
        "input": "0x9e5d4c490000000000000000000000007b79995e5f793a07bc00c21412e50ecae098e7f9000000000000000000000000000000000000000000000000000000000000000000000000000000000000000000000000000000000000000000000000000000600000000000000000000000000000000000000000000000000000000000000044a9059cbb000000000000000000000000b796d5d8af0044939489adedbf8a627f14b90d96000000000000000000000000000000000000000000000000001550f7dca7000000000000000000000000000000000000000000000000000000000000",
        "nonce": "0x10",
        "chainId": "0xaa36a7"
      },
      "additionalContracts": [],
      "isFixedGasLimit": false
    }
  ],
  "receipts": [
    {
      "status": "0x1",
      "cumulativeGasUsed": "0xc224ac",
      "logs": [
        {
          "address": "0x7b79995e5f793a07bc00c21412e50ecae098e7f9",
          "topics": [
            "0xddf252ad1be2c89b69c2b068fc378daa952ba7f163c4a11628f55a4df523b3ef",
            "0x000000000000000000000000b4c240a242c43937391c89a40da28d7e06751ca0",
            "0x000000000000000000000000b796d5d8af0044939489adedbf8a627f14b90d96"
          ],
          "data": "0x000000000000000000000000000000000000000000000000001550f7dca70000",
          "blockHash": "0x1d2546a46fc3d0feb6c5d3b825f6c5cd396f09375b4389d9734fd2ef6b245a20",
          "blockNumber": "0x7af0fa",
          "blockTimestamp": "0x67f150d4",
          "transactionHash": "0x7021f4f57d02f765964032dda5469e533b51857510d11e944e93dbf65e3fd289",
          "transactionIndex": "0x88",
          "logIndex": "0xdf",
          "removed": false
        },
        {
          "address": "0xb4c240a242c43937391c89a40da28d7e06751ca0",
          "topics": [
            "0x9c24516d129fb91aea31c4413f5db0a249820a0b2b83c12b3c6260f1733ca5d2"
          ],
          "data": "0x0000000000000000000000007b79995e5f793a07bc00c21412e50ecae098e7f9000000000000000000000000000000000000000000000000000000000000000000000000000000000000000000000000000000000000000000000000000000600000000000000000000000000000000000000000000000000000000000000044a9059cbb000000000000000000000000b796d5d8af0044939489adedbf8a627f14b90d96000000000000000000000000000000000000000000000000001550f7dca7000000000000000000000000000000000000000000000000000000000000",
          "blockHash": "0x1d2546a46fc3d0feb6c5d3b825f6c5cd396f09375b4389d9734fd2ef6b245a20",
          "blockNumber": "0x7af0fa",
          "blockTimestamp": "0x67f150d4",
          "transactionHash": "0x7021f4f57d02f765964032dda5469e533b51857510d11e944e93dbf65e3fd289",
          "transactionIndex": "0x88",
          "logIndex": "0xe0",
          "removed": false
        }
      ],
      "logsBloom": "0x01000000000000000000000000000000000000000000200000000004000000000000000000000000000000000000000000000000000000000000000000000000000000000000000000000008000000000000000000000000000010000000004000000000000000000000000000000000000100000000000000000010000000000000000000000000000000000200000010000000000000000000000000000000000000000000000000000400001000080000000000000001000000000000000000000002000000040000000000000000000000000000000000000000000000000000000000000000000000000000000000010000000000000000000000000000",
      "type": "0x2",
      "transactionHash": "0x7021f4f57d02f765964032dda5469e533b51857510d11e944e93dbf65e3fd289",
      "transactionIndex": "0x88",
      "blockHash": "0x1d2546a46fc3d0feb6c5d3b825f6c5cd396f09375b4389d9734fd2ef6b245a20",
      "blockNumber": "0x7af0fa",
      "gasUsed": "0xd2c5",
      "effectiveGasPrice": "0x159563",
      "from": "0xb796d5d8af0044939489adedbf8a627f14b90d96",
      "to": "0xb4c240a242c43937391c89a40da28d7e06751ca0",
      "contractAddress": null
    }
  ],
  "libraries": [],
  "pending": [],
  "returns": {},
  "timestamp": 1743868116,
  "chain": 11155111,
  "commit": "4ea0f32"
}