{
  "transactions": [
    {
      "hash": "0xf957bb1c3d4ed6f8068f56334713579eb6a75cd3bed12523ac1ca90bbcb38dcc",
      "transactionType": "CALL",
      "contractName": null,
      "contractAddress": "0x1ff751bc3df57382eec2f57b5aaf31877049890e",
      "function": "createAccount(address,uint256,address,uint256,uint256)",
      "arguments": [
        "0x2aE12FDF70B090f336e9bEB66bF08738ec9C942D",
        "11155111",
        "0x3a2E75227A6CD1Da38f0cc0De2EfE048c3997634",
        "1",
        "0"
      ],
      "transaction": {
        "from": "0xb796d5d8af0044939489adedbf8a627f14b90d96",
        "to": "0x1ff751bc3df57382eec2f57b5aaf31877049890e",
        "gas": "0x36c67",
        "value": "0x0",
        "input": "0xc1340f690000000000000000000000002ae12fdf70b090f336e9beb66bf08738ec9c942d0000000000000000000000000000000000000000000000000000000000aa36a70000000000000000000000003a2e75227a6cd1da38f0cc0de2efe048c399763400000000000000000000000000000000000000000000000000000000000000010000000000000000000000000000000000000000000000000000000000000000",
        "nonce": "0xa",
        "chainId": "0xaa36a7"
      },
      "additionalContracts": [
        {
          "transactionType": "CREATE2",
          "address": "0xb4c240a242c43937391c89a40da28d7e06751ca0",
          "initCode": "0x608060405260405161050b38038061050b8339818101604052810190610025919061030b565b5f8273ffffffffffffffffffffffffffffffffffffffff168260405160240161004e91906103b7565b6040516020818303038152906040527f439fab91000000000000000000000000000000000000000000000000000000007bffffffffffffffffffffffffffffffffffffffffffffffffffffffff19166020820180517bffffffffffffffffffffffffffffffffffffffffffffffffffffffff83818316178352505050506040516100d89190610411565b5f60405180830381855af49150503d805f8114610110576040519150601f19603f3d011682016040523d82523d5f602084013e610115565b606091505b5050905080610159576040517f08c379a000000000000000000000000000000000000000000000000000000000815260040161015090610481565b60405180910390fd5b825f5550505061049f565b5f604051905090565b5f5ffd5b5f5ffd5b5f73ffffffffffffffffffffffffffffffffffffffff82169050919050565b5f61019e82610175565b9050919050565b6101ae81610194565b81146101b8575f5ffd5b50565b5f815190506101c9816101a5565b92915050565b5f5ffd5b5f5ffd5b5f601f19601f8301169050919050565b7f4e487b71000000000000000000000000000000000000000000000000000000005f52604160045260245ffd5b61021d826101d7565b810181811067ffffffffffffffff8211171561023c5761023b6101e7565b5b80604052505050565b5f61024e610164565b905061025a8282610214565b919050565b5f67ffffffffffffffff821115610279576102786101e7565b5b610282826101d7565b9050602081019050919050565b8281835e5f83830152505050565b5f6102af6102aa8461025f565b610245565b9050828152602081018484840111156102cb576102ca6101d3565b5b6102d684828561028f565b509392505050565b5f82601f8301126102f2576102f16101cf565b5b815161030284826020860161029d565b91505092915050565b5f5f604083850312156103215761032061016d565b5b5f61032e858286016101bb565b925050602083015167ffffffffffffffff81111561034f5761034e610171565b5b61035b858286016102de565b9150509250929050565b5f81519050919050565b5f82825260208201905092915050565b5f61038982610365565b610393818561036f565b93506103a381856020860161028f565b6103ac816101d7565b840191505092915050565b5f6020820190508181035f8301526103cf818461037f565b905092915050565b5f81905092915050565b5f6103eb82610365565b6103f581856103d7565b935061040581856020860161028f565b80840191505092915050565b5f61041c82846103e1565b915081905092915050565b5f82825260208201905092915050565b7f496e6974206661696c65640000000000000000000000000000000000000000005f82015250565b5f61046b600b83610427565b915061047682610437565b602082019050919050565b5f6020820190508181035f8301526104988161045f565b9050919050565b6060806104ab5f395ff3fe608060405236600a57005b5f54365f5f375f5f365f845af43d5f5f3e805f81146026573d5ff35b3d5ffdfea2646970667358221220ecdfa8a50a1dd252720cf0f43a8ebb3fcdfdfb7b8f12bec1439c42501268938464736f6c634300081c00330000000000000000000000002ae12fdf70b090f336e9beb66bf08738ec9c942d000000000000000000000000000000000000000000000000000000000000004000000000000000000000000000000000000000000000000000000000000000600000000000000000000000000000000000000000000000000000000000aa36a70000000000000000000000003a2e75227a6cd1da38f0cc0de2efe048c39976340000000000000000000000000000000000000000000000000000000000000001"
        }
      ],
      "isFixedGasLimit": false
    }
  ],
  "receipts": [
    {
      "status": "0x1",
      "cumulativeGasUsed": "0xf669fe",
      "logs": [
        {
          "address": "0x1ff751bc3df57382eec2f57b5aaf31877049890e",
          "topics": [
            "0x07fba7bba1191da7ee1155dcfa0030701c9c9a9cc34a93b991fc6fd0c9268d8f",
            "0x000000000000000000000000b4c240a242c43937391c89a40da28d7e06751ca0",
            "0x0000000000000000000000002ae12fdf70b090f336e9beb66bf08738ec9c942d",
            "0x0000000000000000000000000000000000000000000000000000000000aa36a7"
          ],
          "data": "0x0000000000000000000000003a2e75227a6cd1da38f0cc0de2efe048c399763400000000000000000000000000000000000000000000000000000000000000010000000000000000000000000000000000000000000000000000000000000000",
          "blockHash": "0x60e4e83880be2a297649297f193b754f317e5db665f97165e0b6d2cb412b95d9",
          "blockNumber": "0x7aee40",
          "blockTimestamp": "0x67f12f20",
          "transactionHash": "0xf957bb1c3d4ed6f8068f56334713579eb6a75cd3bed12523ac1ca90bbcb38dcc",
          "transactionIndex": "0x78",
          "logIndex": "0xbd",
          "removed": false
        }
      ],
      "logsBloom": "0x00000000000000000000000000000000200000000000000000000000000000000000000000000000000000000000000002000000000000000000000000000002000000000000000000000000100000000000000000000000000000000000004000000000000000000000000000000000000000000000000000000000000000000000000000000000000000000200000000000080000000000000000000000000000000000000000000000000001000000400000000000000000000000200000000000000000000000000000000000000100080000000000000000000000000000000001000000000000000000000000000000001000000000000002000000000",
      "type": "0x2",
      "transactionHash": "0xf957bb1c3d4ed6f8068f56334713579eb6a75cd3bed12523ac1ca90bbcb38dcc",
      "transactionIndex": "0x78",
      "blockHash": "0x60e4e83880be2a297649297f193b754f317e5db665f97165e0b6d2cb412b95d9",
      "blockNumber": "0x7aee40",
      "gasUsed": "0x27a80",
      "effectiveGasPrice": "0x3e2079",
      "from": "0xb796d5d8af0044939489adedbf8a627f14b90d96",
      "to": "0x1ff751bc3df57382eec2f57b5aaf31877049890e",
      "contractAddress": null
    }
  ],
  "libraries": [],
  "pending": [],
  "returns": {},
  "timestamp": 1743859490,
  "chain": 11155111,
  "commit": "4ea0f32"
}