{
  "transactions": [
    {
      "hash": "0x2526e29c61be73810a00c1f5a2160d0d6d19e75473dadd2b0e7a06b0caffbc17",
      "transactionType": "CALL",
      "contractName": null,
      "contractAddress": "0xb4c240a242c43937391c89a40da28d7e06751ca0",
      "function": "executeCall(address,uint256,bytes)",
      "arguments": [
        "0x7b79995e5f793A07Bc00c21412e50Ecae098E7f9",
        "0",
        "0x095ea7b3000000000000000000000000db5492265f6038831e89f495670ff909ade94bd9000000000000000000000000000000000000000000000000002386f26fc10000"
      ],
      "transaction": {
        "from": "0xb796d5d8af0044939489adedbf8a627f14b90d96",
        "to": "0xb4c240a242c43937391c89a40da28d7e06751ca0",
        "gas": "0x17c40",
        "value": "0x0",
        "input": "0x9e5d4c490000000000000000000000007b79995e5f793a07bc00c21412e50ecae098e7f9000000000000000000000000000000000000000000000000000000000000000000000000000000000000000000000000000000000000000000000000000000600000000000000000000000000000000000000000000000000000000000000044095ea7b3000000000000000000000000db5492265f6038831e89f495670ff909ade94bd9000000000000000000000000000000000000000000000000002386f26fc1000000000000000000000000000000000000000000000000000000000000",
        "nonce": "0x13",
        "chainId": "0xaa36a7"
      },
      "additionalContracts": [],
      "isFixedGasLimit": false
    },
    {
      "hash": "0x0adf6a5b32d2923780c0c4554670dcab2111260699dc78bb618665cae7492d66",
      "transactionType": "CALL",
      "contractName": null,
      "contractAddress": "0xb4c240a242c43937391c89a40da28d7e06751ca0",
      "function": "executeCall(address,uint256,bytes)",
      "arguments": [
        "0xDB5492265f6038831E89f495670FF909aDe94bd9",
        "0",
        "0x0f5287b00000000000000000000000007b79995e5f793a07bc00c21412e50ecae098e7f9000000000000000000000000000000000000000000000000002386f26fc10000000000000000000000000000000000000000000000000000000000000000000136ed25b3f17496eb40f55e22fc51ff8dfc26082856d3fcb634ce24373ee8018900000000000000000000000000000000000000000000000000000000000000000000000000000000000000000000000000000000000000000000000000000000"
      ],
      "transaction": {
        "from": "0xb796d5d8af0044939489adedbf8a627f14b90d96",
        "to": "0xb4c240a242c43937391c89a40da28d7e06751ca0",
        "gas": "0x28175",
        "value": "0x0",
        "input": "0x9e5d4c49000000000000000000000000db5492265f6038831e89f495670ff909ade94bd90000000000000000000000000000000000000000000000000000000000000000000000000000000000000000000000000000000000000000000000000000006000000000000000000000000000000000000000000000000000000000000000c40f5287b00000000000000000000000007b79995e5f793a07bc00c21412e50ecae098e7f9000000000000000000000000000000000000000000000000002386f26fc10000000000000000000000000000000000000000000000000000000000000000000136ed25b3f17496eb40f55e22fc51ff8dfc26082856d3fcb634ce24373ee801890000000000000000000000000000000000000000000000000000000000000000000000000000000000000000000000000000000000000000000000000000000000000000000000000000000000000000000000000000000000000000",
        "nonce": "0x14",
        "chainId": "0xaa36a7"
      },
      "additionalContracts": [],
      "isFixedGasLimit": false
    }
  ],
  "receipts": [
    {
      "status": "0x1",
      "cumulativeGasUsed": "0x9dd328",
      "logs": [
        {
          "address": "0x7b79995e5f793a07bc00c21412e50ecae098e7f9",
          "topics": [
            "0x8c5be1e5ebec7d5bd14f71427d1e84f3dd0314c0f7b2291e5b200ac8c7c3b925",
            "0x000000000000000000000000b4c240a242c43937391c89a40da28d7e06751ca0",
            "0x000000000000000000000000db5492265f6038831e89f495670ff909ade94bd9"
          ],
          "data": "0x000000000000000000000000000000000000000000000000002386f26fc10000",
          "blockHash": "0x30a93414ee4b0b6800065f613eba21e354dd211e157a9ae96e7f79971e296d02",
          "blockNumber": "0x7af15e",
          "blockTimestamp": "0x67f1559c",
          "transactionHash": "0x2526e29c61be73810a00c1f5a2160d0d6d19e75473dadd2b0e7a06b0caffbc17",
          "transactionIndex": "0x59",
          "logIndex": "0x68",
          "removed": false
        },
        {
          "address": "0xb4c240a242c43937391c89a40da28d7e06751ca0",
          "topics": [
            "0x9c24516d129fb91aea31c4413f5db0a249820a0b2b83c12b3c6260f1733ca5d2"
          ],
          "data": "0x0000000000000000000000007b79995e5f793a07bc00c21412e50ecae098e7f9000000000000000000000000000000000000000000000000000000000000000000000000000000000000000000000000000000000000000000000000000000600000000000000000000000000000000000000000000000000000000000000044095ea7b3000000000000000000000000db5492265f6038831e89f495670ff909ade94bd9000000000000000000000000000000000000000000000000002386f26fc1000000000000000000000000000000000000000000000000000000000000",
          "blockHash": "0x30a93414ee4b0b6800065f613eba21e354dd211e157a9ae96e7f79971e296d02",
          "blockNumber": "0x7af15e",
          "blockTimestamp": "0x67f1559c",
          "transactionHash": "0x2526e29c61be73810a00c1f5a2160d0d6d19e75473dadd2b0e7a06b0caffbc17",
          "transactionIndex": "0x59",
          "logIndex": "0x69",
          "removed": false
        }
      ],
      "logsBloom": "0x01000000000000000000000000000000000000000000200000000004000000010000000000000000000000000000000000000000000000000000008000200000000000000000000000000000000000000000000000000000000010000000004000000000000000000000000000000000000140000000000000000000000000000000000000000000000000000200000000000000000000000000000000000000020000000000000000000400001000080000000000000000000000000000000000000002000000040000000000000000000000000000000000000000000000000010000000000000000000000000000000000000000000000000000000000000",
      "type": "0x2",
      "transactionHash": "0x2526e29c61be73810a00c1f5a2160d0d6d19e75473dadd2b0e7a06b0caffbc17",
      "transactionIndex": "0x59",
      "blockHash": "0x30a93414ee4b0b6800065f613eba21e354dd211e157a9ae96e7f79971e296d02",
      "blockNumber": "0x7af15e",
      "gasUsed": "0x1134c",
      "effectiveGasPrice": "0x18d10f",
      "from": "0xb796d5d8af0044939489adedbf8a627f14b90d96",
      "to": "0xb4c240a242c43937391c89a40da28d7e06751ca0",
      "contractAddress": null
    },
    {
      "status": "0x1",
      "cumulativeGasUsed": "0x9f89c3",
      "logs": [
        {
          "address": "0x7b79995e5f793a07bc00c21412e50ecae098e7f9",
          "topics": [
            "0xddf252ad1be2c89b69c2b068fc378daa952ba7f163c4a11628f55a4df523b3ef",
            "0x000000000000000000000000b4c240a242c43937391c89a40da28d7e06751ca0",
            "0x000000000000000000000000db5492265f6038831e89f495670ff909ade94bd9"
          ],
          "data": "0x000000000000000000000000000000000000000000000000002386f26fc10000",
          "blockHash": "0x30a93414ee4b0b6800065f613eba21e354dd211e157a9ae96e7f79971e296d02",
          "blockNumber": "0x7af15e",
          "blockTimestamp": "0x67f1559c",
          "transactionHash": "0x0adf6a5b32d2923780c0c4554670dcab2111260699dc78bb618665cae7492d66",
          "transactionIndex": "0x5a",
          "logIndex": "0x6a",
          "removed": false
        },
        {
          "address": "0x4a8bc80ed5a4067f1ccf107057b8270e0cc11a78",
          "topics": [
            "0x6eb224fb001ed210e379b335e35efe88672a8ce935d981a6896b27ffdf52a3b2",
            "0x000000000000000000000000db5492265f6038831e89f495670ff909ade94bd9"
          ],
          "data": "0x000000000000000000000000000000000000000000000000000000000000121400000000000000000000000000000000000000000000000000000000000000000000000000000000000000000000000000000000000000000000000000000080000000000000000000000000000000000000000000000000000000000000000100000000000000000000000000000000000000000000000000000000000000850100000000000000000000000000000000000000000000000000000000000f42400000000000000000000000007b79995e5f793a07bc00c21412e50ecae098e7f9271236ed25b3f17496eb40f55e22fc51ff8dfc26082856d3fcb634ce24373ee8018900010000000000000000000000000000000000000000000000000000000000000000000000000000000000000000000000000000000000000000000000",
          "blockHash": "0x30a93414ee4b0b6800065f613eba21e354dd211e157a9ae96e7f79971e296d02",
          "blockNumber": "0x7af15e",
          "blockTimestamp": "0x67f1559c",
          "transactionHash": "0x0adf6a5b32d2923780c0c4554670dcab2111260699dc78bb618665cae7492d66",
          "transactionIndex": "0x5a",
          "logIndex": "0x6b",
          "removed": false
        },
        {
          "address": "0xb4c240a242c43937391c89a40da28d7e06751ca0",
          "topics": [
            "0x9c24516d129fb91aea31c4413f5db0a249820a0b2b83c12b3c6260f1733ca5d2"
          ],
          "data": "0x000000000000000000000000db5492265f6038831e89f495670ff909ade94bd90000000000000000000000000000000000000000000000000000000000000000000000000000000000000000000000000000000000000000000000000000006000000000000000000000000000000000000000000000000000000000000000c40f5287b00000000000000000000000007b79995e5f793a07bc00c21412e50ecae098e7f9000000000000000000000000000000000000000000000000002386f26fc10000000000000000000000000000000000000000000000000000000000000000000136ed25b3f17496eb40f55e22fc51ff8dfc26082856d3fcb634ce24373ee801890000000000000000000000000000000000000000000000000000000000000000000000000000000000000000000000000000000000000000000000000000000000000000000000000000000000000000000000000000000000000000",
          "blockHash": "0x30a93414ee4b0b6800065f613eba21e354dd211e157a9ae96e7f79971e296d02",
          "blockNumber": "0x7af15e",
          "blockTimestamp": "0x67f1559c",
          "transactionHash": "0x0adf6a5b32d2923780c0c4554670dcab2111260699dc78bb618665cae7492d66",
          "transactionIndex": "0x5a",
          "logIndex": "0x6c",
          "removed": false
        }
      ],
      "logsBloom": "0x01000000000100000000000000000010000000000000200000000004000000010010000000000000000000000000000000000000000000000000008000000000000000000000000000000008000000000000000000000000000010000100004000000000000000000000000000000000000140000000000000000010000000000000000000000000000000000200000000000000000000000000100000000000000000000400000000000400001000080000000000000000000000000000000000000002000000040000000000000000000000000000000000000000000000000000000000000000000000000000000000000000000000000000000000000000",
      "type": "0x2",
      "transactionHash": "0x0adf6a5b32d2923780c0c4554670dcab2111260699dc78bb618665cae7492d66",
      "transactionIndex": "0x5a",
      "blockHash": "0x30a93414ee4b0b6800065f613eba21e354dd211e157a9ae96e7f79971e296d02",
      "blockNumber": "0x7af15e",
      "gasUsed": "0x1b69b",
      "effectiveGasPrice": "0x18d10f",
      "from": "0xb796d5d8af0044939489adedbf8a627f14b90d96",
      "to": "0xb4c240a242c43937391c89a40da28d7e06751ca0",
      "contractAddress": null
    }
  ],
  "libraries": [],
  "pending": [],
  "returns": {},
  "timestamp": 1743869341,
  "chain": 11155111,
  "commit": "4ea0f32"
}